:020000040800F2
:1000000068050020010100081F1400086D11000898
:100010001D1400086D010008C5180008000000004C
:100020000000000000000000000000002314000891
:100030006F010008000000002114000825140008CA
:100040001B0100081B0100081B0100081B01000820
:100050001B0100081B0100081B0100081B01000810
:100060001B0100081B0100081B0100081B01000800
:100070001B0100081B0100081B0100081B010008F0
:100080001B0100081B0100081B0100081B010008E0
:100090001B0100081B0100081B0100081B010008D0
:1000A0001B0100081B0100081B0100081B010008C0
:1000B0001B0100081B0100081B0100081B010008B0
:1000C0001B0100081B0100081B0100081B010008A0
:1000D0001B010008B91800081B0100081B010008DB
:1000E0001B0100081B0100081B010008DFF80CD0F1
:1000F00000F02AF8004800470519000868050020AC
:100100000648804706480047FEE7FEE7FEE7FEE7B1
:10011000FEE7FEE7FEE7FEE7FEE7FEE779140008EC
:10012000ED000008D2B201E000F8012B491EFBD21D
:1001300070470022F6E710B513460A4604461946F2
:10014000FFF7F0FF204610BD064C074D06E0E068C3
:1001500040F0010394E8070098471034AC42F6D30E
:10016000FFF7C8FF4019000860190008FEE7704754
:100170007047000010B590F821100024022903D028
:100180000421816301243DE001680A6822F00E0227
:100190000A6001680A6822F001020A601A4A0168CE
:1001A000914201D1012121E0174A1432914201D13B
:1001B00010211BE0144A2832914201D1891515E023
:1001C000114A3C32914201D189140FE00E4A50325B
:1001D000914202D14FF4803108E00B4A64329142DF
:1001E00002D14FF4801101E04FF08071064A083AC5
:1001F0005160012180F82110002180F82010416B0E
:1002000001B18847204610BD080002402DE9F84F93
:10021000DFF8B891002409F1040A0AF1040B23461F
:100220000F270BF1040EC9E00125A5402A40AA4280
:100230007DD1674ED1F804C0ACEB0608B44532D08E
:1002400014DCBCF1030F3AD009DCBCF1000F2AD05A
:10025000BCF1010F1CD0BCF1020F31D11DE0BCF18B
:10026000110F17D0BCF1120F2AD119E0B8F5881F71
:1002700019D006DCB8F5803F15D0B8F5801F1FD126
:1002800011E0B8F5001F0ED0B8F5041F18D10AE030
:10029000CB6815E0CB681B1D12E0CB6808330FE07C
:1002A000CB680C330CE08B682BB1012B4FF00803AB
:1002B00003D0456104E0042302E0056100E000236F
:1002C000FF2A01D8064601E000F104064FEA840542
:1002D00001D9A5F12005D6F8008007FA05FC28EA27
:1002E0000C0803FA05F548EA0508C6F800804D68D1
:1002F000ED0062D5374DAE6946F00106AE61AD69DD
:1003000024F0030605F001050095334D06EB050CBE
:10031000DCF80850A607360F07FA06F825EA0805A4
:10032000DFF8B880404503D14FF0000817E044E003
:10033000DFF8AC80404502D14FF001080FE0DFF854
:10034000A480404502D14FF0020808E0DFF8988011
:10035000404502D14FF0030801E04FF0040808FACD
:1003600006F848EA0508CCF808804D68D9F800601E
:10037000ED034D4601D5164300E096432E604D68CF
:10038000DAF80060AD03554601D5164300E0964308
:100390002E604D68DBF80060ED025D4601D5164326
:1003A00000E096432E604D68DEF80060AD027546B1
:1003B00001D5164300E096432E60641C0D682A4662
:1003C000E5407FF431AFBDE8F88F00000004014044
:1003D0000000111000100240000001400008014020
:1003E000000C014000100140001401400AB10161FD
:1003F00070470904FBE7000001488068704700006F
:100400000000002002488168027811448160704732
:1004100000000020074810B5016841F0100101609C
:10042000032000F079F8002000F006F800F024F82E
:10043000002010BD0020024070B50D4D04464FF461
:100440007A712878B1FBF0F00A490968B1FBF0F045
:1004500000F066FB48B9102C07D200222146501E3E
:1004600000F03AF800206C6070BD012070BD000003
:10047000000000200C0000200E4808B5816941F002
:1004800001018161816901F001010091C16941F0BF
:100490008051C161C06900F080500090052000F0DB
:1004A0003BF80548416821F0E06141F0007141608E
:1004B00008BD00000010024000000140002809DBD8
:1004C00000F01F02012191404009800000F1E0206E
:1004D000C0F8001170470000F0B40E4B1B680C46CA
:1004E000C3F30223C3F10705042D00D90425191D08
:1004F000072901D2002300E0DB1E012606FA05F1E0
:10050000491E214099409E40761E16403143F0BC62
:1005100001F0D9B90CED00E0064900F007020868C7
:100520004FF6FF03184040EA0220034A10430860D8
:10053000704700000CED00E00000FA052DE9F047DF
:100540000F46050061D0434E306800F00700B84206
:1005500009D2306820F0070038433060306800F07E
:100560000700B84251D128683B4C810712D540079B
:1005700003D5606840F4E06060602878000703D528
:10058000606840F4605060606068A96820F0F00026
:10059000084360602878C00728D06868012810D018
:1005A0002168022810D0890700292EDA616821F01D
:1005B000030101436160FFF71FFF804641F2883964
:1005C0000DE021688903EFE78901EDE7FFF714FFEC
:1005D000A0EB0801494502D90320BDE8F087606817
:1005E000696800F00C00B0EB810FEFD1306800F0CB
:1005F0000700B8420BD9306820F00700384330605C
:10060000306800F00700B84201D00120E5E7287803
:10061000400705D56068E96820F4E0600843606041
:100620002878000706D56068296920F4605040EA00
:10063000C100606000F038F86168084AC1F3031136
:10064000515CC8400649086006480068FFF7F4FEA0
:100650000020C2E7002002400010024026190008D6
:100660000C00002004000020044805490068496887
:10067000044AC1F30221515CC84070470C000020BD
:10068000001002403619000804480549006849680E
:10069000044AC1F3C221515CC84070470C000020DD
:1006A000001002403619000812A185B00FC98DE86C
:1006B0000F0014A0144A006804905168134801F018
:1006C0000C03042B10D0082B0ED1C1F38343C903B4
:1006D0001DF803000AD5516804AAC1F34041515CDA
:1006E0000A4A5043B0FBF1F005B07047084948434F
:1006F000FAE7000002030405060708090A0B0C0DBF
:100700000E0F1010010200000010024000127A00CB
:1007100000093D002DE9F84F040070D02078C04D4D
:10072000C00749D06868C0F38100012807D0686815
:10073000C0F38100022809D16868C00306D5286883
:10074000800339D560680028E7D035E06068B0F5EF
:10075000803F0BD010B1B0F5A02F11D0286820F445
:1007600080302860286820F4802002E0286840F467
:1007700080302860606890B1FFF73EFE06460AE0D0
:10078000286840F480202860F0E700BFFFF734FEBF
:10079000801B642873D828688003F7D50CE0FFF726
:1007A0002BFE064605E000BFFFF726FE801B6428EF
:1007B000F0D828688003F7D420789A4E80074FF04D
:1007C00001094FF0000839D5686810F00C0F07D008
:1007D0006868C0F38100022809D16868C00306D4A4
:1007E0002868800714D52069012808D110E0206905
:1007F000B0B1C6F80090FFF7FFFD074605E00AE13B
:10080000FFF7FAFDC01B0228C4D828688007F7D577
:100810002868616920F0F80040EAC10028600DE016
:10082000C6F80080FFF7E8FD074604E0FFF7E4FDA7
:10083000C01B022823D828688007F7D42078000737
:100840002CD57948A169D9B1C0F80090FFF7D4FD43
:10085000074604E0FFF7D0FDC01B02280FD8686AE6
:100860008007F7D571484FF4FA510068B0FBF1F0FA
:10087000009000BF0098411E0091FAD20EE080E087
:10088000C0F80080FFF7B8FD074604E0FFF7B4FDAD
:10089000C01B022875D8686A8007F7D42078400703
:1008A00060D5E8690027C00008D4E86940F08050AE
:1008B000E861E869012700F0805000905C48016819
:1008C000C90513D40168834641F480710160FFF7C4
:1008D00093FD824606E000BFFFF78EFDA0EB0A0005
:1008E00064284ED8DBF80000C005F5D5E068012883
:1008F0000AD008B1052813D0286A20F00100286228
:10090000286A20F0040002E0286A40F00100286212
:10091000E06841F2883B98B1FFF76EFD82460BE03C
:10092000286A40F004002862EEE700BFFFF764FD8C
:10093000A0EB0A0159455AD8286A8007F6D50CE081
:10094000FFF75AFD824605E0FFF756FDA0EB0A01CE
:1009500059454CD8286A8007F6D41FB1E86920F0C1
:100960008050E861E06988B36968C1F381010229B8
:1009700044D00228C6F8608004D0FFF73DFD04464D
:1009800038E034E0FFF738FD074604E0FFF734FDB8
:10099000C01B02282BD828688001F7D4206AB0F544
:1009A000803F05D16868A16820F400300843686082
:1009B000D4E908010843696821F4741108436860A8
:1009C000C6F86090FFF718FD044606E025E000BF7A
:1009D000FFF712FD001B022809D828688001F7D50F
:1009E0001BE000BFFFF708FD001B022802D903200F
:1009F000BDE8F88F28688001F4D40EE00128F7D014
:100A00006868226A00F48031914204D1616A00F47E
:100A10007010884201D00120EAE70020E8E70000DA
:100A20000010024000004242800442420C000020BC
:100A30000070004070B5040005D00025A56294F850
:100A4000510010B106E0012070BD84F850502046DE
:100A500000F02EF8022084F851002068016821F08F
:100A600040010160D4E901010843D4E903121143B4
:100A7000084361690843218B01F400710843E1696F
:100A80000843216A0843A16A084321680860A069F5
:100A9000042101EA1040216848602068C16921F4FE
:100AA0000061C1616565012084F85100002070BDBE
:100AB00030B585B00024009401940294039400683A
:100AC0001449884223D11448816941F480518161DD
:100AD000816901F480510491816941F004018161CF
:100AE00080690E4D00F004000490A02000900220C8
:100AF00001900320039069462846FFF787FB4020BA
:100B0000CDE90004694628460294FFF77FFB05B053
:100B100030BD0000003001400010024000080140DC
:100B200010B5401EB0F1807F01D3012010BD4FF001
:100B3000E02460610F21601700F0C5FE0020A06175
:100B400007202061002010BD70B590F83C20012ADC
:100B500019D0012400F83C4F0222427050F83C3C6E
:100B60005A689D6822F070060A684968324325F089
:100B7000800529435A6050F83C2C91604470002154
:100B80000170084670BD022070BD10B5040003D08E
:100B900094F83D0010B107E0012010BD002084F85A
:100BA0003C00204600F00CF8022084F83D00211D96
:100BB000206800F085FC012084F83D00002010BD75
:100BC00000B585B000210091019102910391006868
:100BD0000E49884217D10E48816941F40061816154
:100BE000816901F400610491816941F0040181612E
:100BF0008069694600F0040004904FF48050009032
:100C00000448FFF703FB05B000BD0000002C0140C5
:100C1000001002400008014070B5044690F83C0006
:100C2000012817D0012584F83C50022084F83D00AB
:100C30002068826822F0770222F47F42826008688E
:100C4000502830D00DDC20284DD005DC98B310287A
:100C50003BD148E0022070BD302844D0402834D138
:100C600039E0602828D0702806D0B0F5805F2CD0FD
:100C7000B0F5005F29D10AE0CB68D1E901212068F5
:100C800000F054FC2068816841F0770109E0CB68EE
:100C9000D1E90121206800F049FC2068816841F415
:100CA0008041816011E0CA684968206800F0F2FC68
:100CB0005021206807E016E0CA684968206800F003
:100CC000FAFC6021206800F03BFC84F83D500020D5
:100CD00084F83C0070BDCA684968206800F0DAFCFE
:100CE00040212068EFE7226801461046EBE72DE936
:100CF000F0410D46040003D094F83D0018B108E01F
:100D00000120BDE8F081002084F83C00204600F07E
:100D10003BF8022084F83D002068816844F2070215
:100D200091438160211D206800F0CAFB2268906811
:100D30009169166A2B68AF69034340F2033081431F
:100D400041EA0721A868EF6908434FF6FC41884350
:100D5000E96840EA0720014328692F6A000140EA58
:100D60000730084369686D6926F0220646EA0515D2
:100D7000294393602268906120680162012084F811
:100D80003D000020BDE7000000B585B000210091C6
:100D90000191029103910068124988421FD11248C3
:100DA000C16941F00201C161C16901F00201049110
:100DB000816941F0080181618069694600F008009D
:100DC0000490302000900948FFF720FA0848416855
:100DD00021F4406141F0E06141F40061416005B0FF
:100DE00000BD00000004004000100240000C014063
:100DF0000000014000B585B00021009101910291F1
:100E0000039100680B49884212D10B48816941F077
:100E1000080181618069694600F008000490402063
:100E2000009002200190032003900448FFF7EEF9A0
:100E300005B000BD0008004000100240000C014059
:100E400070B5044690F83C000D4601280DD00126EF
:100E500084F83C60022084F83D0042B1042A18D096
:100E6000082A2AD00C2A4DD139E0022070BD206812
:100E700000F06EFB2068816941F008018161206803
:100E8000816921F004018161206881692A69114327
:100E900011E0206800F084FB2068816941F4006162
:100EA00081612068816921F48061816120688169A4
:100EB0002A6941EA0221816124E0206800F09CFB5C
:100EC0002068C16941F00801C1612068C16921F051
:100ED0000401C1612068C1692A69114311E02068D9
:100EE00000F0B6FB2068C16941F40061C16120686F
:100EF000C16921F48061C1612068C1692A6941EA40
:100F00000221C16184F83D60002084F83C0070BD7E
:100F100010B5040003D094F83D0010B107E00120A3
:100F200010BD002084F83C00204600F00DF802209F
:100F300084F83D00211D206800F0C2FA012084F8E9
:100F40003D00002010BD000008B500680649884239
:100F500008D10648C16941F00401C161C06900F0CF
:100F60000400009008BD000000080040001002408E
:100F70007047000070B5026804461068D168536974
:100F800010F00F0F50D003F0010501F490763543B7
:100F90005DD0C20705D0CA0503D5E26B42F001025D
:100FA000E263420705D5DA0703D0E26B42F00202A2
:100FB000E263820705D5DA0703D0E26B42F0040250
:100FC000E263020705D5DA0703D0E26B42F00802BC
:100FD000E263E26B002A33D0800604D5880602D58E
:100FE000204600F090FB20684069E16BC0F3801060
:100FF000090700D428B3204600F077FB2068416938
:1010000049061AD5416921F040014161606BA0B1E8
:101010001B494163606BFFF7ADF8002810D0606B8F
:10102000416BBDE870400847830610D58B060ED58E
:101030002046BDE8704000F066BB2046FFF798FFF1
:1010400070BD2046FFF794FF0020E06370BD0306EB
:1010500006D50B0604D52046BDE8704000F0FABB6B
:101060004006F3D54806F1D5D168204621F040016D
:10107000D160202184F8391000F077F870BD0000AD
:10108000DB16000870B5040004D094F83900002580
:1010900010B106E0012070BD84F83850204600F001
:1010A00023F8242084F839002068C16821F4005115
:1010B000C160204600F072FB2068016921F4904174
:1010C00001612068416921F02A0141612068C168FD
:1010D00041F40051C160E563202084F8390084F8B0
:1010E0003A00002070BD000030B585B000240094A7
:1010F0000194029403940068184988422CD118483E
:10110000816941F480418161816901F480410491E8
:10111000816941F0040181618069124D00F0040091
:1011200004904FF40070009002200190032003907F
:1011300069462846FFF76AF82815CDE90004694694
:1011400028460294FFF762F8012203212520FFF7C9
:10115000C3F92520FFF7B2F905B030BD00380140D2
:10116000001002400008014070477047FEE7000091
:10117000F0B585B00024354800940194029403949E
:10118000816941F020018161816901F020010491B0
:10119000816941F004018161816901F004010491D8
:1011A000816941F0080181618069294E00F00800E1
:1011B0000490002240F604013046FFF717F901229F
:1011C0004FF48C713046FFF711F9224F00224FF295
:1011D00001013846FFF70AF90325CDE900546946B5
:1011E00030460294FFF712F804200124CDE90004F0
:1011F0000220CDE9020469463046FFF707F81820BF
:10120000CDE9000469463046CDE90245FEF7FEFF10
:101210000094694638460194CDE90245FEF7F6FF91
:101220004FF47040CDE900040294694638460394B7
:10123000FEF7ECFF4FF41060CDE90004029469461C
:1012400030460394FEF7E2FF05B0F0BD0010024007
:1012500000080140000C0140104810B50E49016023
:101260004FF48271416000218160C1604FF40072CF
:101270000161C0E905120822C0E9072141628162CB
:101280000A21C162FFF7D6FB002803D0BDE8104059
:10129000FEF76EBF10BD00000030014010000020BE
:1012A00010B586B000241848009401940294039469
:1012B000049414490594C0E900144FF6FF71C0E985
:1012C0000241046144618461FFF75FFC08B1FEF7ED
:1012D0004FFF4FF40050CDE90004029469460A48DC
:1012E0000394FFF799FC08B1FEF742FF049404A9A8
:1012F00005480594FFF728FC002801D0FEF738FFC9
:1013000006B010BD002C01406800002010B58CB064
:1013100024216846FEF70DFF00241548099413495F
:101320000A94C0E900144FF6FF71C0E9024104615C
:1013300084610120CDE90004CDE902040494CDE9E3
:101340000540079469460A480894FFF7D0FC08B1A5
:10135000FEF70EFF099409A905480A94FFF7F4FB6C
:10136000002801D0FEF704FF0CB010BD00040040BF
:10137000A800002010B58AB0002407941C216846FC
:101380000894FEF7D6FE16481449C0E900144FF63B
:10139000FF71C0E9024104618461FFF7B9FD08B142
:1013A000FEF7E6FE079407A90D480894FFF7CCFB6B
:1013B00008B1FEF7DDFE6020CDE9000402940022B2
:1013C000694607480494FFF73BFD08B1FEF7D0FEDD
:1013D0000348FFF70FFD0AB010BD000000080040F1
:1013E000E80000200C4810B50A4901604FF4E131D3
:1013F0004160002181600C22C160C0E9041281615A
:10140000C161FFF73FFE002803D0BDE81040FEF7A2
:10141000AFBE10BD0038014028010020FEE7704734
:1014200070477047FEF7EEBF30B58FB02821684691
:10143000FEF77FFE14210AA8FEF77BFE01210804B7
:10144000CDE900100024029402250491CDE9075053
:101450004FF4E01009906846FFF75CF90F20CDE9E2
:101460000A056802CDE90C4002210AA80E94FFF794
:1014700065F80FB030BD00000D48016841F0010172
:10148000016041680B4A1140416001680A4A1140FD
:101490000160016821F480210160416821F4FE01AE
:1014A00041604FF41F0181600449C0030860704728
:1014B000001002400000FFF8FFFFF6FE08ED00E01C
:1014C000F0B50268164B174C174D4FF08047984205
:1014D00005D0B84203D0A04201D0A84203D122F0E7
:1014E00070064A683243984205D0B84203D0A04201
:1014F00001D0A84203D122F44074CA6822434C6947
:1015000022F08002224302608A68C2620A68826214
:10151000984201D10969016301214161F0BD0000D8
:10152000002C0140000400400008004010B5846811
:1015300042EA032224F47F440A432243826010BD1E
:10154000826822F070020A4342F00701816070470E
:1015500030B5026A22F001020262026A43688469BD
:1015600024F073050C682C4322F002058A682A4394
:101570000A4DA8420BD122F00805CA6823F4407333
:101580002A434D6922F004021D438B692B434360BB
:10159000846149684163026230BD0000002C014053
:1015A00030B5026A22F010020262026A436884695E
:1015B0000D6824F4E64444EA05248D6822F02002F4
:1015C00042EA05120B4DA8420ED1CD6822F08002EE
:1015D00042EA05124D6923F4406343EA85038D69AD
:1015E00022F0400243EA85034360846149688163D5
:1015F000026230BD002C014030B5026A22F48072D4
:101600000262036A4268C46923F4007324F073051C
:101610000C682C438D6843EA05230C4DA8420ED17B
:10162000CD6823F4006343EA05234D6922F4405258
:1016300042EA05128D6923F4806342EA0512426092
:10164000C4614968C163036230BD0000002C0140E1
:1016500030B5026A22F480520262046A4268C369A9
:101660000D6823F4E64343EA05238D6824F400540F
:1016700044EA0534064DA84204D14D6922F4804263
:1016800042EA85124260C36149680164046230BD68
:10169000002C014010B5036A046A24F001040462BE
:1016A000846924F0F00444EA021423F00A020A4395
:1016B0008461026210BD10B5036A23F01003036257
:1016C0008369046A23F4704343EA023224F0A003DE
:1016D00043EA01118261016210BD10B5406A002128
:1016E000C185C184FFF744FC10BD0168CA6822F4BB
:1016F0009072CA6001684A6922F001024A612021A1
:1017000080F83A10704710B590F83A10222901D0AD
:10171000022010BD8168B1F5805F11D001690029F8
:1017200001681FD0496801F07F03816A4A1C826208
:101730000B70C18D491E0904090CC18518D02BE01E
:101740000269816A002A0268526805D0D2B20A8012
:10175000816A491C8162ECE7C2F308020A80816A4F
:10176000891CF7E74A68816A4B1C83620A70E0E7CC
:101770000168CA6822F02002CA600168CA6822F4BF
:101780008072CA6001684A6922F001024A61202120
:1017900080F83A10FFF7E8FC002010BD2DE9F04179
:1017A000044600680169E26821F440511143016177
:1017B0002169A0680843616908432168CA6841F249
:1017C0000C639A430243CA6020684169A26921F40C
:1017D0004071114341611E492068642532268842C8
:1017E00002D1FEF751FF01E0FEF73EFF00EBC00122
:1017F00001EB001160686FF018078000B1FBF0F298
:10180000B2FBF5F2B1FBF0F37A4303EB8202B1FBDA
:10181000F0F306EB0212B2FBF5F2B3FBF5F302F0C4
:10182000F00202EB0312B1FBF0F3B1FBF0F0B0FBFE
:10183000F5F0784303EB800006EB0010B0FBF5F009
:10184000216800F00F0010448860BDE8F0810000BE
:101850000038014090F83910212901D0022070474A
:101860008168B1F5805F016A0BD04A1C0262026890
:1018700009785160C18C491E0904090CC1840ED03D
:1018800017E009880268C1F3080151600169002965
:10189000016A02D0491C0162ECE7891CFBE7016880
:1018A000CA6822F08002CA600068C16841F0400145
:1018B000C1600020704700000148FFF75BBB0000DB
:1018C00028010020FEE70907090E002804DB00F1CB
:1018D000E02080F80014704700F00F0000F1E020D5
:1018E00080F8141D704702E008C8121F08C1002AC2
:1018F000FAD170477047002001E001C1121F002A91
:10190000FBD17047FEF786FDFFF78EFDFFF730FC39
:10191000FFF7A2FCFFF7C4FCFFF7F8FCFFF72AFD76
:10192000FFF760FDFEE7000000000000000001027C
:101930000304060708090000000001020304000078
:10194000601900080000002010000000E6180008E0
:10195000701900081000002058050000F618000853
:101960000100000010000000000000000024F4004E
:04000005080000ED02
:00000001FF
