:020000040800F2
:1000000008060020010100083F18000849150008F3
:100010003D1800086D010008211D000800000000C7
:10002000000000000000000000000000431800086D
:100030008901000800000000411800084518000868
:100040001B0100081B0100081B0100081B01000820
:100050001B0100081B0100081B0100081B01000810
:100060001B0100081B0100081B0100081B01000800
:10007000710100087D0100081B0100081B01000838
:100080001B0100081B0100081B0100081B010008E0
:100090001B0100081B0100081B0100081B010008D0
:1000A0001B010008E91800081B0100081B010008DB
:1000B0001B0100081B0100081B0100081B010008B0
:1000C0001B0100081B0100081B0100081B010008A0
:1000D0001B010008151D00081B0100081B0100087A
:1000E0001B0100081B0100081B010008DFF80CD0F1
:1000F00000F02AF800480047611D000808060020AB
:100100000648804706480047FEE7FEE7FEE7FEE7B1
:10011000FEE7FEE7FEE7FEE7FEE7FEE7A1180008C0
:10012000ED000008D2B201E000F8012B491EFBD21D
:1001300070470022F6E710B513460A4604461946F2
:10014000FFF7F0FF204610BD064C074D06E0E068C3
:1001500040F0010394E8070098471034AC42F6D30E
:10016000FFF7C8FFCC1D0008EC1D0008FEE70000EB
:10017000014800F057B80000C0000020014800F01E
:1001800051B800007C0000207047704710B590F80F
:1001900021100024022903D00421816301243DE0C1
:1001A00001680A6822F00E020A6001680A6822F0FB
:1001B00001020A601A4A0168914201D1012121E03D
:1001C000174A1432914201D110211BE0144A2832FF
:1001D000914201D1891515E0114A3C32914201D179
:1001E00089140FE00E4A5032914202D14FF480310F
:1001F00008E00B4A6432914202D14FF4801101E0D1
:100200004FF08071064A083A5160012180F82110B0
:10021000002180F82010416B01B18847204610BDB5
:10022000080002402DE9F05FC16B0B6801680A68A5
:10023000046C4FF0040C0CFA04FC4A4DDFF828A1C2
:100240004A4E4B4FDFF82CB1DFF82CE11CEA030FCC
:100250002DD05FEA427C2AD50A68920603D40A6848
:1002600022F004020A600168A94201D1042119E0C8
:10027000514501D1402115E0B14202D14FF48061D6
:1002800010E0B94202D14FF480410BE0594502D150
:100290004FF4802106E0714502D14FF4800101E066
:1002A0004FF080612F4A083A5160C16A3BE04FF03D
:1002B000020808FA04F818EA030F4FF000094FF09B
:1002C000010C35D05FEA827832D50A68920605D4EF
:1002D0000A6822F00A020A6080F821C00168A94277
:1002E00001D1022119E0514501D1202115E0B1428F
:1002F00002D14FF4007110E0B94202D14FF4005125
:100300000BE0594502D14FF4003106E0714502D1AE
:100310004FF4001101E04FF00071124A083A5160A9
:1003200080F82090816A00291AD0BDE8F05F084764
:100330000825A5401D4213D0120711D50A6822F0E6
:100340000E020A6090F84010C26B0CFA01F1516085
:10035000C0F838C080F821C080F82090016BE2E737
:10036000BDE8F09F080002401C000240300002403F
:1003700044000240580002406C00024030B528B3EF
:1003800002C8134A14230A44B2FBF3F29200C26378
:10039000104A8263022242770B6843F6F07293435D
:1003A000D0E900242243D0E902452C4322430469CA
:1003B000224344692243846922431A430A6000218C
:1003C0004163012242770177084630BD012030BDEC
:1003D000F8FFFDBF000002402DE9F84FDFF8A491BF
:1003E000002409F1040A0AF1040B23464FF00F0818
:1003F0000BF1040EBEE00127A7403A40BA4272D189
:10040000DFF884C14D68A5EB0C0665452BD00DDCEB
:10041000032D34D005DC35B3012D19D0022D2FD199
:100420001BE0112D16D0122D2AD119E0B6F5881F28
:1004300019D006DCB6F5803F15D0B6F5801F1FD168
:1004400011E0B6F5001F0ED0B6F5041F18D10AE072
:10045000CB6815E0CB681B1D12E0CB6808330FE0BA
:10046000CB680C330CE08B682BB1012B4FF00803E9
:1004700003D0476104E0042302E0076100E00023A9
:10048000FF2A01D8064601E000F104064FEA840580
:1004900001D9A5F12005376808FA05FC27EA0C0701
:1004A00003FA05F547EA050737604D68ED0060D5AA
:1004B000364DAE6946F00106AE61AD6924F0030623
:1004C00005F001050095324D7719BE68A5072D0F7F
:1004D00008FA05FC26EA0C06DFF8B8C0604503D12F
:1004E0004FF0000C17E044E0DFF8ACC0604502D1EB
:1004F0004FF0010C0FE0DFF8A4C0604502D14FF0CF
:10050000020C08E0DFF898C0604502D14FF0030C00
:1005100001E04FF0040C0CFA05FC4CEA060CC7F89D
:1005200008C04D68D9F80060ED034D4601D516436B
:1005300000E096432E604D68DAF80060AD03554642
:1005400001D5164300E096432E604D68DBF800604D
:10055000ED025D4601D5164300E096432E604D68DE
:10056000DEF80060AD02754601D5164300E0964303
:100570002E60641C0A6832FA04F57FF43CAFBDE8D3
:10058000F88F00000004014000001110001002402C
:100590000000014000080140000C01400010014033
:1005A000001401400AB1016170470904FBE7000033
:1005B0000148806870470000000000200248816800
:1005C000027811448160704700000020074810B590
:1005D000016841F010010160032000F079F800206B
:1005E00000F006F800F024F8002010BD00200240C2
:1005F00070B50D4D04464FF47A712878B1FBF0F0D8
:100600000A490968B1FBF0F000F098FB48B9102CDA
:1006100007D200222146501E00F03AF800206C60FC
:1006200070BD012070BD0000000000200C00002003
:100630000E4808B5816941F001018161816901F0CD
:1006400001010091C16941F08051C161C06900F0B0
:1006500080500090052000F03BF80549486820F0E4
:10066000E06040F00070486008BD000000100240EB
:1006700000000140002809DB00F01F020121914029
:100680004009800000F1E020C0F800117047000030
:10069000F0B40E4B1B68C3F30223C3F10704042C10
:1006A00000D904241D1D072D01D2002300E0DB1E0C
:1006B000012606FA04F56D1E0D409D409E40761EF3
:1006C000164045EA0601F0BC01F02BBB0CED00E042
:1006D000064A00F0070110684FF6FF03184040EA91
:1006E0000120034908431060704700000CED00E052
:1006F0000000FA052DE9F0470D46040067D0DFF849
:100700001881D8F8000000F00700A8420CD2D8F8F1
:10071000001021F007012943C8F80010D8F80000A4
:1007200000F00700A84252D120683C4E810712D544
:10073000400703D5706840F4E060706020780007DF
:1007400003D5706840F4605070607068A16820F054
:10075000F000084370602078C00727D06068012847
:1007600010D03168022810D0890700292FDA71686B
:1007700021F0030101437160FFF71AFF074641F2C0
:1007800088390CE031688903EFE78901EDE7FFF76D
:100790000FFFC11B494502D90320BDE8F0877068EF
:1007A000616800F00C00B0EB810FF0D1D8F80010B8
:1007B000404601F00701A9420BD9016821F0070169
:1007C00029430160006800F00700A84201D0012021
:1007D000E3E72078400705D57068E16820F4E06021
:1007E000084370602078000706D57068216920F4FE
:1007F000605040EAC100706000F038F87168084A43
:10080000C1F30311515CC8400649086006480068FE
:10081000FFF7EEFE0020C0E700200240001002407B
:10082000B41D00080C000020040000200448054905
:1008300000684968044AC1F30221515CC84070470E
:100840000C00002000100240C41D000804480549A7
:1008500000684968044AC1F3C221515CC84070472E
:100860000C00002000100240C41D000812A085B03A
:100870000FC88DE80F0014A0144B0068049059684D
:10088000134801F00C02042A10D0082A0ED1C1F33B
:100890008342C9031DF802000AD5596804AAC1F3AE
:1008A0004041515C0A4A5043B0FBF1F005B070473B
:1008B00008494843FAE7000002030405060708094F
:1008C0000A0B0C0D0E0F1010010200000010024068
:1008D00000127A0000093D002DE9F84F04006FD0A6
:1008E0002078BE4DC00747D06868C0F3810001285A
:1008F00007D06868C0F38100022809D16868C00386
:1009000006D52868800337D560680028E7D033E033
:100910006068B0F5803F0BD010B1B0F5A02F11D0BA
:10092000286820F480302860286820F4802002E0C5
:10093000286840F480302860606888B1FFF738FE8E
:10094000064609E0286840F480202860F0E7FFF7B9
:100950002FFE801B642873D828688003F7D50BE02E
:10096000FFF726FE064604E0FFF722FE801B642800
:10097000F1D828688003F7D42078DFF864828007F4
:100980004FF0010A4FF0000939D5686810F00C0FDC
:1009900007D06868C0F38100022809D16868C003E5
:1009A00006D42868800714D52069012808D110E0F2
:1009B0002069B0B1C8F800A0FFF7FAFD064605E0CF
:1009C00007E1FFF7F5FD801B0228C4D828688007DF
:1009D000F7D52868616920F0F80040EAC100286076
:1009E0000DE0C8F80090FFF7E3FD064604E0FFF7CE
:1009F000DFFD801B022823D828688007F7D42078E1
:100A000000072CD57748A169D9B1C0F800A0FFF73D
:100A1000CFFD064604E0FFF7CBFD801B02280FD870
:100A2000686A8007F7D570484FF4FA510068B0FB48
:100A3000F1F0009000BF0098411E0091FAD20EE044
:100A40007CE0C0F80090FFF7B3FD064604E0FFF736
:100A5000AFFD801B022871D8686A8007F7D4207820
:100A600040075BD5E8690027C00008D4E86940F07A
:100A70008050E861E869012700F0805000905B48F1
:100A80000168C90511D40168834641F48071016091
:100A9000FFF78EFD064604E0FFF78AFD801B642801
:100AA0004CD8DBF80000C005F6D5E06801280AD074
:100AB00008B1052813D0286A20F001002862286AAE
:100AC00020F0040002E0286A40F001002862E0689B
:100AD00041F2883B88B1FFF76BFD064609E0286AC2
:100AE00040F004002862EEE7FFF762FD811B5945E4
:100AF0005BD8286A8007F7D50BE0FFF759FD06465B
:100B000004E0FFF755FD811B59454ED8286A800740
:100B1000F7D41FB1E86920F08050E861E069A8B31C
:100B20006968C1F38101022946D00228484606D0EF
:100B3000C8F86000FFF73CFD044639E035E0474661
:100B4000C8F86000FFF734FD064604E0FFF730FD0B
:100B5000801B022829D828688001F7D4206AB0F5C4
:100B6000803F05D16868A16820F4003008436860C0
:100B7000D4E908010843696821F4741108436860E6
:100B8000C7F860A0FFF714FD044605E023E0FFF777
:100B90000FFD001B022808D828688001F7D51AE04D
:100BA000FFF706FD001B022802D90320BDE8F88FDD
:100BB00028688001F4D40EE00128F7D06868226A22
:100BC00000F48031914204D1616A00F470108842CF
:100BD00001D00120EAE70020E8E700000010024011
:100BE00000004242800442420C000020007000409D
:100BF00070B5040005D00025A56294F8510010B12D
:100C000006E0012070BD84F85050204600F02EF818
:100C1000022084F851002068016821F04001016041
:100C2000D4E901010843D4E903121143084361697F
:100C30000843218B01F400710843E1690843216AEC
:100C40000843A16A084321680860A069042101EAF9
:100C50001040216848602068C16921F40061C161C9
:100C60006565012084F85100002070BD2DE9F04138
:100C700086B000250446009501950295039500680D
:100C8000294988424DD12948816941F480518161C7
:100C9000816901F480510491816941F0040181610D
:100CA0008069234E00F004000490A02000900220F0
:100CB00001900320039069463046FFF78DFB4020EA
:100CC000CDE90005694630460295FFF785FB1A4ECF
:100CD00018484FF0800801C61020A6E821014702FD
:100CE00046F8105914487561C6E90657FFF746FBE8
:100CF00008B1FFF74AFAA66474620F4E0D484436F5
:100D00001438C6E90005C6E9025835617561C6E9BF
:100D100006573046FFF732FB08B1FFF736FAE664B4
:100D2000746206B0BDE8F08100300140001002405E
:100D300000080140300002407C00002010B5401E39
:100D4000B0F1807F01D3012010BD4FF0E02460613D
:100D50000F21601700F0E5FF0020A061072020614F
:100D6000002010BD7047704770B590F83C20012AF4
:100D700019D0012500F83C5F0222427050F83C2C4B
:100D80005368946823F070060B684968334324F075
:100D900080042143536050F83C2C91604570002141
:100DA0000170084670BD022070BD10B5040003D06C
:100DB00094F83D0010B107E0012010BD002084F838
:100DC0003C00204600F00CF8022084F83D00211D74
:100DD000206800F08FFD012084F83D00002010BD48
:100DE00000B585B000210091019102910391006846
:100DF0001349884221D11348816941F4006181611E
:100E0000816901F400610491816941F0040181610B
:100E10008069694600F0040004904FF4805000900F
:100E2000022002900848FFF7D7FA02220121192078
:100E3000FFF72EFC1920FFF71DFC05B000BD0000D8
:100E4000002C0140001002400008014070B504462B
:100E500090F83C00012817D0012584F83C5002206E
:100E600084F83D002068826822F0770222F47F42F5
:100E700082600868502830D00DDC20284DD005DC79
:100E800098B310283BD148E0022070BD302844D0F0
:100E9000402834D139E0602828D0702806D0B0F539
:100EA000805F2CD0B0F5005F29D10AE0CB68D1E992
:100EB0000121206800F061FD2068816841F0770120
:100EC00009E0CB68D1E90121206800F056FD2068D7
:100ED000816841F48041816011E0CA6849682068F6
:100EE00000F006FE5021206807E016E0CA68496855
:100EF000206800F00EFE6021206800F048FD84F8B4
:100F00003D50002084F83C0070BDCA6849682068E4
:100F100000F0EEFD40212068EFE722680146104610
:100F2000EBE72DE9F0410D46040003D094F83D00B5
:100F300018B108E00120BDE8F081002084F83C00F1
:100F4000204600F03BF8022084F83D0020688168CC
:100F500044F2070291438160211D206800F0CAFC21
:100F6000206881688269066A2B68AF690B4340F28A
:100F700003318A4342EA0722A968EF6911434FF619
:100F8000FC429143EA6841EA07210A4329692F6A32
:100F9000090141EA0731114326F022026E686D69AA
:100FA000836042EA05121643206881612068066268
:100FB000012084F83D000020BDE7000000B585B0A9
:100FC0000021009101910291039100681249884229
:100FD0001FD11248C16941F00201C161C16901F02C
:100FE00002010491816941F00801816180696946CB
:100FF00000F008000490302000900948FFF7ECF959
:101000000849486820F4406040F0E06040F4006027
:10101000486005B000BD0000000400400010024020
:10102000000C014000000140704770B504460068A4
:1010300001694FF00005C943890715D4C168C94348
:10104000890711D4E91E0161012020772068806999
:101050008007204602D0FFF7E7FF04E000F0BEF86B
:10106000204600F053F9257720680169C9434907F4
:1010700017D4C168C943490713D46FF00401016153
:10108000022020772068806910F4407F204602D03B
:10109000FFF7CAFF04E000F0A1F8204600F036F99F
:1010A000257720680169C943090716D4C168C94377
:1010B000090712D46FF0080101610420207720682D
:1010C000C0698007204602D0FFF7AEFF04E000F0C1
:1010D00085F8204600F01AF9257720680169C94390
:1010E000C90617D4C168C943C90613D46FF01001EB
:1010F0000161082020772068C06910F4407F2046F5
:1011000002D0FFF791FF04E000F068F8204600F0FD
:10111000FDF8257720680169C943C90708D1C1686E
:10112000C943C90704D1891E0161204600F00CF9AA
:1011300020680169C943090609D4C168C943090681
:1011400005D46FF0800101612046FFF70BFE206897
:101150000169C943490609D4C168C943490605D490
:101160006FF040010161204600F0EFF8206801694E
:10117000C94389060BD4C168C943890607D46FF0F7
:10118000200101612046BDE87040FFF7ECBD70BD55
:1011900000B585B000210091019102910391006892
:1011A0000B49884212D10B48816941F008018161E5
:1011B0008069694600F008000490402000900220F9
:1011C0000190032003900448FFF706F905B000BD25
:1011D0000008004000100240000C0140704770B54C
:1011E000044690F83C000D4601280DD0012684F8F5
:1011F0003C60022084F83D0042B1042A18D0082A3D
:101200002AD00C2A4DD139E0022070BD206800F0B0
:10121000C7FB2068816941F008018161206881690C
:1012200021F004018161206881692A69114311E07C
:10123000206800F0E1FB2068816941F40061816170
:101240002068816921F480618161206881692A694F
:1012500041EA0221816124E0206800F0FBFB206864
:10126000C16941F00801C1612068C16921F0040130
:10127000C1612068C1692A69114311E0206800F04A
:1012800015FC2068C16941F40061C1612068C16931
:1012900021F48061C1612068C1692A6941EA0221A3
:1012A000C16184F83D60002084F83C0070BD10B539
:1012B000040003D094F83D0010B107E0012010BDF8
:1012C000002084F83C00204600F00CF8022084F84E
:1012D0003D00211D206800F00DFB012084F83D0039
:1012E000002010BD08B500680649884208D10648AC
:1012F000C16941F00401C161C06900F004000090BF
:1013000008BD0000000800400010024070470000C7
:1013100010B504460068012200F022FB094920684C
:10132000884203D1416C41F40041416420688168E6
:1013300001F00701062903D0016841F001010160B5
:10134000002010BD002C014070477047704700001E
:1013500070B5026804461068D168536910F00F0F29
:1013600050D003F0010501F4907635435DD0C207FB
:1013700005D0CA0503D5E26B42F00102E2634207E1
:1013800005D5DA0703D0E26B42F00202E26382077E
:1013900005D5DA0703D0E26B42F00402E2630207EC
:1013A00005D5DA0703D0E26B42F00802E263E26B94
:1013B000002A33D0800604D5880602D5204600F0E6
:1013C000D0FB20684069E16BC0F38010090700D4AE
:1013D00028B3204600F0B7FB2068416949061AD5BA
:1013E000416921F040014161606BA0B11B4941633B
:1013F000606BFEF7CBFE002810D0606B416BBDE840
:1014000070400847830610D58B060ED52046BDE8F0
:10141000704000F0A6BB2046FFF798FF70BD204645
:10142000FFF794FF0020E06370BD030606D50B06AE
:1014300004D52046BDE8704000F03ABC4006F3D524
:101440004806F1D5D168204621F04001D160202125
:1014500084F8391000F077F870BD0000371B0008E1
:1014600070B5040004D094F83900002510B106E0EE
:10147000012070BD84F83850204600F023F8242065
:1014800084F839002068C16821F40051C160204609
:1014900000F0B2FB2068016921F4904101612068ED
:1014A000416921F02A0141612068C16841F400517D
:1014B000C160E563202084F8390084F83A000020F8
:1014C00070BD000030B585B00024009401940294F2
:1014D00003940068184988422CD11848816941F466
:1014E00080418161816901F480410491816941F009
:1014F000040181618069124D00F0040004904FF4F2
:101500000070009002200190032003906946284655
:10151000FEF762FF2815CDE90004694628460294CB
:10152000FEF75AFF012203212520FFF7B1F82520FD
:10153000FFF7A0F805B030BD0038014000100240B0
:101540000008014070477047FEE700000D4808B5ED
:10155000416941F0010141614069022200F001004E
:10156000009011460C20FFF793F80C20FFF782F84B
:10157000032202210D20FFF78BF8BDE808400D2063
:10158000FFF778B800100240F0B585B00024354868
:101590000094019402940394816941F020018161D7
:1015A000816901F020010491816941F004018161A8
:1015B000816901F004010491816941F008018161B0
:1015C0008069294E00F008000490002240F60401D2
:1015D0003046FEF7E7FF01224FF48C713046FEF7EC
:1015E000E1FF224F00224FF201013846FEF7DAFFF9
:1015F0000325CDE90054694630460294FEF7ECFE1F
:1016000004200124CDE900040220CDE9020469464A
:101610003046FEF7E1FE1820CDE900046946304669
:10162000CDE90245FEF7D8FE00946946384601949C
:10163000CDE90245FEF7D0FE4FF47040CDE900043D
:101640000294694638460394FEF7C6FE4FF41060D4
:10165000CDE900040294694630460394FEF7BCFECF
:1016600005B0F0BD0010024000080140000C014030
:10167000104810B50E4901604FF48271416000219D
:1016800002228160C0E903121202C0E90512082299
:10169000C0E90721416281620A21C162FFF7A8FA0D
:1016A000002803D0BDE81040FEF76FBD10BD00005C
:1016B000003001402400002010B586B000241848F6
:1016C0000094019402940394049414490594C0E98D
:1016D00000144FF6FF71C0E9024104614461846166
:1016E000FFF763FB08B1FEF750FD4FF40050CDE962
:1016F0000004029469460A480394FFF7A7FB08B167
:10170000FEF743FD049404A905480594FFF72CFB5C
:10171000002801D0FEF739FD06B010BD002C0140B5
:101720000401002010B58CB024216846FEF701FDAD
:1017300000241648099414490A9401600421C0E960
:1017400001144FF6FF72C0E9032484610320CDE940
:1017500000040120CDE902040491CDE90540CDE962
:10176000074169460948FFF7DCFB08B1FEF70DFDAC
:10177000099409A905480A94FFF7F6FA002801D050
:10178000FEF703FD0CB010BD000400404401002032
:1017900010B58AB0002407941C2168460894FEF70F
:1017A000C8FC1748154901604721C0E901144FF4EE
:1017B0007A71C0E903148461FFF779FD08B1FEF77F
:1017C000E4FC079407A90E480894FFF7CDFA08B186
:1017D000FEF7DBFC602000904FF4FA70CDE90104C5
:1017E0000022694606480494FFF7F9FC08B1FEF7A9
:1017F000CCFC0348FFF7CCFC0AB010BD0008004049
:10180000840100200C4810B50A4901604FF4E13111
:101810004160002181600C22C160C0E90412816135
:10182000C161FFF71DFE002803D0BDE81040FEF7A0
:10183000ACBC10BD00380140C4010020FEE7704779
:101840007047704710B5FEF7B9FEBDE8104000F0D4
:10185000A1BA30B58FB028216846FEF76AFC142182
:101860000AA8FEF766FC01210804CDE90010002457
:10187000029402250491CDE907504FF4E01009903D
:101880006846FFF729F80F20CDE90A056802CDE97F
:101890000C4002210AA80E94FEF72CFF0FB030BDB9
:1018A0000D48016841F00101016041680B4A114097
:1018B000416001680A4A11400160016821F48021F9
:1018C0000160416821F4FE0141604FF41F01816015
:1018D0000449C00308607047001002400000FFF890
:1018E000FFFFF6FE08ED00E00148FFF79EBB000099
:1018F00004010020F0B50268164C174D174E4FF04A
:101900008047A04205D0B84203D0A84201D0B042DF
:1019100003D122F070034A681A43A04205D0B842AE
:1019200003D0A84201D0B04203D122F44073CA6868
:101930001A434B6922F080021A4302608A68C2622D
:101940000A688262A04201D10969016301214161F3
:10195000F0BD0000002C01400004004000080040E1
:1019600010B501F01F010123046A8B409C430462FF
:10197000036A8A401343036210BD10B5846842EACB
:10198000032224F47F440A432243826010BD82680C
:1019900022F070020A4342F00701816070470000A4
:1019A00030B5026A22F001020262036A4268846969
:1019B00024F073050C682C4323F002058B682B433D
:1019C0000C4DA84206D123F00805CB6843EA050375
:1019D00023F0040307D14D6922F4407245EA020561
:1019E0008A6942EA05024260846149684163036290
:1019F00030BD0000002C014030B5026A22F0100218
:101A00000262026A436884690D6824F4E64444EA89
:101A100005248D6822F0200242EA05120C4DA842EE
:101A200006D1CD6822F0800242EA051222F040027F
:101A300007D14D6923F4406343EA85038D6943EA86
:101A400085034360846149688163026230BD0000A0
:101A5000002C014030B5026A22F480720262036AEF
:101A60004268C46923F4007324F073050C682C43A6
:101A70008D6843EA05230C4DA84206D1CD6823F4B6
:101A8000006343EA052323F4806307D14D6922F400
:101A9000405242EA05128D6942EA05124260C46171
:101AA0004968C163036230BD002C014030B5026A51
:101AB00022F480520262036A4268C4690D6824F409
:101AC000E64444EA05248D6823F4005343EA0533D1
:101AD000064DA84204D14D6922F4804242EA8512A3
:101AE0004260C46149680164036230BD002C01405A
:101AF00010B5046A036A23F001030362836923F0CB
:101B0000F00343EA021324F00A020A4383610262EB
:101B100010BD10B5036A23F0100303628469036AE1
:101B200024F4704444EA023223F0A00343EA011192
:101B30008261016210BD10B5406A0021C185C18477
:101B4000FFF704FC10BD0168CA6822F49072CA60F5
:101B500001684A6922F001024A61202180F83A10A6
:101B6000704710B590F83A10222901D0022010BD1C
:101B70008168B1F5805F11D00169002901681FD02B
:101B8000496801F07F03816A4A1C82620B70C18D33
:101B9000491E0904090CC18518D02BE00269816A2D
:101BA000002A0268526805D0D2B20A80816A491CB4
:101BB0008162ECE7C2F308020A80816A891CF7E7B8
:101BC0004A68816A4B1C83620A70E0E70168CA6850
:101BD00022F02002CA600168CA6822F48072CA60DA
:101BE00001684A6922F001024A61202180F83A1016
:101BF000FFF7A8FC002010BD2DE9F0410446006865
:101C00000169E26821F4405111430161A168206932
:101C10000143606901432068C26841F20C639A4342
:101C20000A43C26020684169A26921F440711143EE
:101C300041611E49206864253226884202D1FEF7A0
:101C400005FE01E0FEF7F2FD00EBC00101EB001123
:101C500060686FF018078000B1FBF0F2B2FBF5F29C
:101C6000B1FBF0F37A4303EB8202B1FBF0F306EB36
:101C70000212B2FBF5F2B3FBF5F302F0F00202EB55
:101C80000312B1FBF0F3B1FBF0F0B0FBF5F07843D9
:101C900003EB800006EB0010B0FBF5F0216800F0CC
:101CA0000F0010448860BDE8F0810000003801405A
:101CB00090F83910212901D0022070478168B1F5D0
:101CC000805F016A0BD04A1C026202680978516089
:101CD000C18C491E0904090CC1840ED017E0098883
:101CE0000268C1F30801516001690029016A02D04C
:101CF000491C0162ECE7891CFBE70168CA6822F015
:101D00008002CA600068C16841F04001C1600020E3
:101D1000704700000148FFF71BBB0000C401002012
:101D2000FEE70907090E002804DB00F1E02080F837
:101D30000014704700F00F0000F1E02080F8141D3F
:101D4000704702E008C8121F08C1002AFAD1704784
:101D50007047002001E001C1121F002AFBD170472B
:101D6000FEF734FCFFF775FDFFF70EFCFFF7EEFB07
:101D7000FFF77EFCFFF7A0FCFFF7D4FCFFF708FDA0
:101D8000FFF740FD00210248FFF7C2FAFAE7000022
:101D900084010020064A002032F8101011B1491EBB
:101DA00022F81010401CC0B20828F5D3704700007C
:101DB00012000020000000000000000001020304E7
:101DC000060708090000000001020304EC1D0008DA
:101DD0000000002024000000421D0008101E000822
:101DE00024000020E4050000521D0008010000004E
:101DF00010000000000000000024F40000000100BA
:101E000005000A0032006400F401E803B80B00008A
:04000005080000ED02
:00000001FF
